:0400000002005E326A
:01000B0032C2
:0100130032BA
:01001B0032B2
:0100230032AA
:03002B000204C804
:030033000204C400
:03004300023E007A
:03005300023E006A
:093E00000213710002139F00027D
:083E09001389000213F7000207
:083E110013B50002140F0002BA
:083E19003EB800023EB80002B1
:083E21003EB800023EB80002A9
:083E29003EB800023EB80002A1
:083E31003EB800023EB8000299
:083E39003EB800023EB8000291
:083E41003EB800023EB8000289
:083E49003EB800023EB8000281
:083E51003EB800023EB8000279
:083E59003EB800023EB8000271
:083E61003EB800023EB8000269
:083E69003EB800023EB8000261
:083E71003EB800023EB8000259
:083E79003EB800023EB8000251
:083E81003EB800023EB8000249
:083E89003EB800023EB8000241
:083E91003EB800023EB8000239
:083E99003EB800023EB8000231
:083EA1003EB800023EB8000229
:083EA9003EB800023EB8000221
:073EB1003EB800023EB8001C
:013EB80032D7
:0E3F0000120100020000004047050B102600D1
:043F0E0001020301A8
:0A3F12000A06000200000040010052
:0E3F1C0009022000010100A0FA0904000002C1
:0E3F2A00FF00000007050202000200070586E6
:043F38000200020081
:0E3F3C0009022000010100A0FA0904000002A1
:0E3F4A00FF0000000705020240000007058688
:043F58000240000023
:043F5C00040309044D
:0E3F60001003430079007000720065007300CA
:023F6E007300DE
:0E3F700018034E00320050004B002000560097
:0A3F7E004E004100200056003500FF
:0E3F88002203300030003000300030003000E6
:0E3F96003000300030003000300030003000CD
:063FA40030003000310086
:023FAA00000015
:0300560002005E47
:0300B700020059EB
:050059001200BA80FE58
:0500BA00C203C201C2F7
:0400BF0002C2001267
:0400C30005C77510E8
:0300C700007511B0
:0300CA003F75126D
:0300CD0012751396
:0300D0003F751465
:0300D3001C751584
:0300D6003F75165D
:0300D9003C75175C
:0300DC003F751C51
:0300DF005C751D30
:0300E2003F851641
:0300E50018851764
:0400E80019AA18AB8E
:0A00EC00198A828B83A37402F08549
:0300F600141A8554
:0300F900151BAA2A
:0A00FC001AAB1B8A828B83A37407E2
:0E010600F0D2E843D82090E668E04409F0907B
:0E011400E65CE0443DF0C2BD538EDF75C804CA
:0E01220075CBF075CA5FD2ADD2AF90E680E02B
:09013000FA20E105D2041204DDFD
:0C01390090E680E054F7F0538EF8C2030B
:0A01450090E680E0FA30E72485140C
:03014F00188515FB
:0401520019AA18AB23
:0A015600198A828B83A37402F085DE
:03016000161A85E7
:03016300171BAABD
:0A0166001AAB1B8A828B83A3740777
:01017000F09E
:070171003000051201B4C2C9
:010178000086
:0901790030033312130F502EC2A3
:010182000379
:0C01830012165B20012090E682E0FA30AA
:0A018F00E70890E682E0FA20E1EABA
:0E01990090E682E0FA30E60890E682E0FA2076
:0201A700E0DA9C
:0601A90012059112131172
:0501AF0012065E80BD98
:0C01B40090E6B9E0FA24F450030204AF16
:0701C000EA2A2A9001C7732F
:0701C7000202B202035C0218
:0601CE0004AF02041B0255
:0601D40004AF0204AF02BB
:0601DA0001EB0204AF027C
:0601E00002AC0202A602BF
:0501E600029A0202A0D4
:0801EB0012132940030204BCB9
:0A01F30090E6BBE0FABA01028016A4
:0501FD00BA020280358A
:05020200BA0302805464
:05020700BA0602801997
:05020C00BA0702803872
:02021100807CEF
:0A02130090E6B3E511F0AA107B009D
:08021D0090E6B4EAF00204BC13
:0A02250090E6B3E513F0AA127B0087
:08022F0090E6B4EAF00204BC01
:0A02370090E6B3E519F0AA187B0069
:0802410090E6B4EAF00204BCEF
:0A02490090E6B3E51BF0AA1A7B0053
:0802530090E6B4EAF00204BCDD
:0E025B0090E6BAE0F58212050FAA82AB837C12
:0D026900008A058B068C07EA4B4C600F9055
:0E027600E6B3EEF07E0090E6B4EDF00204BCBC
:0B02840090E6A0E0FA4401F00204BC88
:0B028F0090E6A0E0FA4401F00204BC7D
:06029A001213520204BC25
:0602A00012134A0204BC27
:0602A60012132B0204BC40
:0602AC001213330204BC32
:0802B20012136940030204BCB1
:0A02BA0090E6B8E0FABA8002800D69
:0502C400BA8102802D4B
:0502C900BA8202803E34
:0302CE00020351D7
:0A02D100A201E43325E0FAA202E4E2
:0E02DB0033FB420290E740EAF090E741E4F086
:0D02E90090E68AF090E68B7402F00204BCEF
:0E02F60090E740E4F090E741F090E68AF09047
:08030400E68B7402F00204BC58
:0E030C0090E6BCE0FA53027E90E6BCE0FBC334
:0E031A0074809BE4334A90164093FA3395E0CA
:0E032800FB74A12AFA74E63BFB8A828B83E009
:0E033600FA53020190E740EAF090E741E4F04C
:0D03440090E68AF090E68B7402F00204BC93
:0B03510090E6A0E0FA4401F00204BCBA
:08035C0012136B40030204BC04
:0C03640090E6B8E0FA6008BA0202801BC4
:030370000204BCC8
:0B03730090E6BAE0FABA0105C20102F0
:02037E0004BCBD
:0B03800090E6A0E0FA4401F00204BC8B
:09038B0090E6BAE06003020410E0
:0E03940090E6BCE0FA53027E90E6BCE0FBC3AC
:0E03A20074809BE4334A90164093FA3395E042
:0E03B000FB74A12AFA74E63BFB90E6BCE0FC6D
:0E03BE0053047E90E6BCE0FDC374809DE433E2
:0E03CC004C90164093FC3395E0FD74A12CFC80
:0E03DA0074E63DFD8C828D83E0FC5304FE8AA8
:0E03E800828B83ECF090E6BCE05480C423547A
:0E03F6001FFA90E6BCE0FB740F5B90E6832AD2
:0C040400F090E683E0FA4420F00204BC13
:0B04100090E6A0E0FA4401F00204BCFA
:08041B0012136D40030204BC42
:0C04230090E6B8E0FA6008BA02028025FA
:03042F000204BC08
:0B04320090E6BAE0FABA0105D2010220
:02043D0004BCFD
:0B043F0090E6BAE0FABA02030204BC27
:0A044A0090E6A0E0FA4401F080689B
:0E04540090E6BCE0FA53027E90E6BCE0FBC3EB
:0E04620074809BE4334A90164093FA3395E081
:0E047000FB74A12AFA74E63BFB90E6BCE0FCAC
:0E047E0053047E90E6BCE0FDC374809DE43321
:0E048C004C90164093FC3395E0FD74A12CFCBF
:0E049A0074E63DFD8C828D83E0FC4304018AF4
:0704A800828B83ECF0800D54
:0D04AF0012136F500890E6A0E0FA4401F02F
:0804BC0090E6A0E04480F0226C
:0404C40053D8EF32E8
:0904C800C0E0051EE51E700205EE
:0104D1002703
:0604D200E5286002152878
:0504D800C2CFD0E032AC
:0C04DD0030040A90E680E0FA440AF08047
:0104E900080A
:0804EA0090E680E0FA4408F0FE
:0D04F2009005DC12054690E65D74FFF09069
:0E04FF00E65F74FFF05391EF90E680E054F753
:02050D00F022DA
:06050F00AA82AB1CAC1D2A
:0E0515008B828C83A3E0FDBD03238A051AEDC3
:0705230070058B828C83221E
:0E052A008B058C068B828C83E0FF7800EF2D12
:0A053800FDE83EFE8D038E0480D323
:040542009000002203
:0E054600AA82AB8390E600E0FC54187011749A
:0E055400012AFCE43BFD8C02C313CA13CAFB50
:02056200801205
:0E05640090E600E0FC530418BC1007EBCA251B
:04057200E0CA33FBAD
:090576008A048B051ABAFF011B6F
:0E057F00EC4D600DC002C00312164AD003D02E
:03058D000280E603
:010590002248
:0E05910090E682E0FA30E00890E682E0FA2080
:02059F00E61064
:0E05A10090E682E0FA30E11D90E682E0FA304A
:0205AF00E7154E
:0E05B10090E680E04401F090001412054690A0
:0705BF00E680E0FA54FEF0B3
:0105C6002212
:0A1640000001020203030404050583
:0E05C70090E600E0FA74E75A90E600F5F07452
:0E05D5001045F0F090E6107420F090E61174DE
:0E05E30020F00000000090E61274A2F000006C
:0D05F100000090E6137420F0000000009060
:0E05FE00E61474E2F00000000090E615746050
:0C060C00F0C20790E6917480F00000003E
:0C0618000090E6917480F075AF07D201ED
:070624007525007526007525
:06062B002900755E007558
:050631002C00C205C20F
:0406360006C208C22E
:04063A0009C20BC224
:04063E000CC20FC219
:040642000DC20E7562
:0C064600570475890075800075900075E0
:0C065200B00075B33F75B27F75B5FF2294
:07065E0020060612071B0233
:0206650006F09D
:08066700E5AA30E0030206F0F1
:08066F0090E691E0FABA0F00D9
:0506770050030206F033
:0E067C0090F000E0FABA556C90F001E0FA53ED
:0A068A0002C1BA416130085E200B86
:080694005B75690A756AF075D7
:0C069C006B0090F00575F000120A52D2BD
:0B06A8000B90F003E0FA541F60349048
:0706B300F002E0FAB40100BF
:0E06BA00E433FA702290F001E0A2E5E433FA96
:0A06C800600A90F002E0FABA0F0099
:0206D2004004E2
:0406D400C2108002CE
:0206D800D2103E
:0706DA00201004C210800291
:0206E100D21035
:0306E300201004E0
:0406E600C2108002BC
:0206EA00D2102C
:0406EC00A210920EB8
:0A06F000E55E30E605120EAC800D49
:0A06FA00E55E30E705120DFF8003F6
:03070400120D1BB8
:07070700E52C6003120CD584
:06070E00300903120B9EEE
:060714002005030212564D
:01071A0022BC
:06071B00E5AA30E0012216
:0C072100C20590E690E0FB7A0090E691A3
:0E072D00E0FC7D00EC2AFAED3BFB90F000E0D2
:06073B00FCBC5502802108
:06074100BC5A030208751A
:06074700BCA3030209A897
:06074D00BCA5030208E652
:06075300BCAA0302091F0D
:06075900BCAC03020968BC
:03075F00020A4744
:0A076200752A55C20975C804C3EAE0
:0A076C00940FEB9400500302086E96
:0D07760090F001E0FC30E74A5380837C00E6
:03078300BC0200B5
:0E07860050354380105380EFEC600643800432
:030794005380FB94
:0E0797004380085380F74380045380FB7D2885
:0C07A500ED60094380085380F71D80F4CC
:0907B100EC60064380045380FB58
:0307BA000C80C6EA
:0607BD00D20A7530007540
:0507C30026005329CFC0
:0C07C8005380FB90F001E0FC30E63F2085
:0607D4000B1A75690A759D
:0A07DA006AF0756B0090F00575F0F1
:0C07E40000C002C003120A52D003D00271
:0B07F000C20B90F001E0FC20E214209E
:0C07FB000C114380045380FBC002C003BB
:07080700121230D003D002F1
:04080E00C20C800E8A
:0E08120090F001E0FC30E2064380045380FBCE
:0E08200090F001E0FC30E10DC3EA9419EB9476
:07082E0000B3E433FC700489
:040835007C008002C1
:020839007C0140
:07083B00EC60047C01800267
:020842007C0038
:0A0844008C2C90F003E060227C0190
:03084E00BC1900D2
:0C085100500FEC242DF88C827583F0E031
:05085D00FDF60C80EC2B
:070862007525008557821285
:050869000B2853295F7C
:07086E0090E6917480F02276
:0C087500752A5AC3EA9405EB9400405E1B
:0E08810090F001E0FC30E70690F002E0F58018
:0E088F0090F001E0FC30E60690F003E0F590FA
:0E089D0090F001E0FC30E40690F005E0F5B0CC
:0E08AB0090F001E0FC30E51790F004E0FC2432
:0E08B900F8400E5390E390F004E025E025E0B7
:0308C700FC429060
:0E08CA0090F001E0FC30E30D5380FC90F0064E
:0708D800E0FC74035C4280A8
:0708DF0090E6917480F02205
:0C08E600752AA5C3EA9404EB9400402698
:0D08F20090F001E0FC30E71090F002E0F51E
:0708FF002B24F09211B392CB
:0409060007532B0F59
:0D090A0090F001E0FC30E60690F003E0F50F
:010917005788
:0709180090E6917480F022CB
:0C091F00752AAAC3EA941CEB9400403631
:02092B007C014D
:03092D00BC1C00EF
:0C093000500FEC242DF88C827583F0E051
:05093C00FDF60C80EC4B
:09094100D20975C804E4F553F570
:04094A0054F555F516
:03094E0056756972
:050951003A756A007513
:090956006B4090003575F0401271
:02095F000A523A
:0709610090E6917480F02282
:0C096800752AACC3EA9405EB9400402D06
:0E09740090F004E090E100F090F002E0FC90C2
:0A098200F003E0F56590F004E0F5E5
:05098C006675670175AE
:0C09910068E18C82121512E433FC600255
:02099D008002D6
:02099F00D20F75
:0709A10090E6917480F02242
:0C09A800752AA3C3EA9406EB94005003E8
:0309B400020A40F4
:0E09B70090F004E0FC7D0074052CFCE43DFD96
:0A09C500EAB50406EBB50502800256
:0209CF00806F37
:0E09D10090F004E090E100F07A057BF08B9D41
:0E09DF007A057BF08A9E7A017BE18B9A7A0181
:0B09ED007BE17B008A9B90F004E0FAA5
:0709F800EA60047B018002AC
:0209FF007B007B
:0E0A0100EB600C90E67CE0FB90E67BF01A8048
:010A0F00E8FE
:020A10007A006A
:060A12008A030ABB0A0082
:0C0A1800502690F002E0FB90F003E0F5A7
:050A240061756201751F
:0A0A290063E190F004E0F5648B82B5
:0D0A3300C00212146DE433FBD002BB00D2F0
:070A400090E6917480F022A2
:0B0A4700752A0090E6A0E04401F022B8
:080A5200AA82AB83ACF07D0425
:040A5A00BDFF0122B9
:0E0A5E00ED2AFEE43BFF8C008E828F8388F031
:0A0A6C00121624FEED2569FFE435A3
:0A0A76006AF8A96B8F82888389F06B
:0B0A8000121624FFEE30E0034380401C
:070A8B00EF30E0034380207F
:0D0A9200438008538097EE30E1034380401D
:070A9F00EF30E1034380206A
:0D0AA600438008538097EE30E20343804008
:070AB300EF30E20343802055
:0D0ABA00438008538097EE30E303438040F3
:070AC700EF30E30343802040
:0D0ACE00438008538097EE30E403438040DE
:070ADB00EF30E4034380202B
:0D0AE200438008538097EE30E503438040C9
:070AEF00EF30E50343802016
:0D0AF600438008538097EE30E603438040B4
:070B0300EF30E60343802000
:0D0B0A00438008538097EE30E7034380409E
:070B1700EF30E703438020EB
:0A0B1E004380085380971D020A5A15
:0A0B2800AA82C20AC28CC28DE52F1A
:090B3200FB70067420452EF52E1F
:0A0B3B00E52EFC30E516752800C316
:060B4500EB9A50028A2F1A
:0C0B4B00E52FF4F58C758A00D28C800236
:020B57008B28E9
:0A0B5900741F5530F526EC30E10B57
:0A0B6300E52624F0500E75260F80E1
:010B6D00097E
:090B6E00E52624E1500375261E62
:0A0B7700E526601FEC30E302D20611
:060B8100EC30E402D20595
:070B87004329105329F785F3
:030B8E00315E30A5
:060B91000707535EF0E5CA
:030B97002B425E90
:040B9A007527002299
:0A0B9E00C374019553E49554E495E7
:050BA80055E495569292
:040BAD0012E55345B5
:040BB100544555450D
:040BB50056B4010031
:080BB90092135004AA308002DF
:020BC100AA2F59
:050BC300E5286001229D
:0E0BC80075C800C002120DC7D002438004534E
:0C0BD60080FBC28CC28DE52EFB30E60EC9
:0C0BE200EAF4F58C758A00D28C752800AE
:020BEE00800580
:050BF00075C8048A280D
:0C0BF500EB30E70B3013055380FD80034C
:030C01004380022B
:080C0400155374FFB5530C15E4
:050C0C0054B55407156A
:050C110055B555021568
:010C16005687
:060C170030125EE54025ED
:050C1D004AFAE5413533
:050C22004BFCE542352A
:050C27004CFDE5433522
:050C2C004DFE8A4A8C18
:040C31004B8D4C8E0D
:040C35004DE545251F
:050C39004FFAE546350D
:050C3E0050FCE5473504
:050C430051FDE54835FC
:050C480052FE8A4F8CF2
:040C4D00508D518EE7
:070C51005274F85549FAE561
:0A0C58003F2A54F8FA740755352AB4
:080C6200F54974F8554EFAE55E
:0A0C6A00442A54F8FA7407553A2A98
:040C7400F54E803C7D
:020C78007A0000
:030C7A00BA0500B8
:0A0C7D00501FEA2449F874082A24E5
:0A0C87002DF98704A604EA244EF8B4
:0C0C9100740D2A242DF98704A6040A80A3
:010C9D00DC7A
:0A0C9E00A21272134010EB30E40CB8
:090CA8007404454EF54E74044538
:030CB10049F549B9
:050CB40030130C853136
:030CB9005385322E
:030CBC0054853329
:030CBF0055853424
:010CC20056DB
:040CC30075694E758C
:060CC7006A00756B40900D
:080CCD00004975F040020A52D3
:070CD5007401B52C02800E32
:070CDC007402B52C02801F19
:070CE3007403B52C32802AD6
:070CEA0030082D752C027586
:030CF100694175E1
:060CF4006A00756B4090E0
:080CFA00003C75F040020A52B3
:0A0D0200200815758200120B28D29C
:050D0C00085329DF750A
:030D11002C03228E
:060D1400200803752C000D
:010D1A0022B6
:0A0D1B00E52930E444200D0AE590BC
:080D250020E525E59030E020F7
:080D2D00439002E52860012259
:0C0D3500120DC7200D064390205390DEE5
:0B0D4100120DD2E58020E703432908D3
:010D4C002284
:080D4D00E59030E5035390DE50
:0C0D5500E58030E707E52724FC40012280
:030D6100020DDDA3
:0C0D6400E526605EE58020E7507401B5D4
:090D700026207402B52C02800A51
:080D7900E52C7015300B12206F
:020D81000C0F55
:0B0D83004380045380FBE52C7005D278
:040D8E000C12123001
:0A0D9200E525252525E0FA7BE08A1F
:050D9C00588B59E4F53D
:040DA1005AF55BF5AF
:040DA5005CF55D128A
:060DA9000F71300C183040
:0A0DAF000E15200D12439020539002
:040DB900DED20D2257
:090DBD00E52724FC500302131386
:010DC600220A
:030DC700308C036A
:030DCA00308DFD6C
:050DCD00C28CC28D2262
:060DD200C20D5329EF756C
:050DD8002700D20822F3
:0E0DDD004390015390FE4390015390FE4390CB
:0E0DEB00015390FE4390015390FE439001533C
:060DF90090FE4390012270
:0A0DFF00E52930E444200D0AE590D8
:080E090020E125E59030E02016
:080E1100439020E52860012256
:0C0E1900120DC7200D064390025390FC00
:0B0E2500120DD2E59020E703432908DE
:010E3000229F
:080E3100E59030E1035390FC51
:0C0E3900E59030E707E52724FC4001228B
:030E4500020DDDBE
:0C0E4800E526605FE59020E7517401B5DD
:090E540026207402B52C02800A6C
:080E5D00E52C7015300B12208A
:020E65000C0F70
:0B0E67004380045380FBE52C7005D293
:040E72000C1212301C
:060E7600E4F558F559F502
:040E7C005AE52525E9
:090E80002525E0FA7BE08A5B8B7A
:050E89005C755D001224
:060E8E000F71300C18305A
:0A0E94000E15200D1243900253903A
:040E9E00FCD20D2253
:090EA200E52724FC5003021313A0
:010EAB002224
:0A0EAC00E52930E44A200D0DE59021
:060EB600542260028027B7
:050EBC00E59030E0228A
:050EC100E5286001229C
:0C0EC600120DC7200D064390225390DC53
:0D0ED200120DD2E58030E705E59020E70322
:030EDF004329089C
:010EE20022ED
:090EE300E590542260035390DCF9
:0C0EEC00E59030E707E52724FC400122D8
:030EF800020DDD0B
:050EFB00E52670012254
:0D0F0000E59020E762E58020E75D7401B513
:090F0D0026207402B52C02800AB2
:080F1600E52C7015300B1220D0
:020F1E000C0FB6
:0B0F20004380045380FBE52C7005D2D9
:040F2B000C12123062
:0A0F2F00E525252525E0FA7BE08A80
:040F3900588B597503
:0A0F3D005A00E5250425E025E0FA3E
:070F47007BE08A5B8B5C7507
:060F4E005D00120F7105A9
:050F540025300C1830EF
:0A0F59000E15200D12439022539054
:040F6300DCD20D22AD
:090F6700E52724FC5003021313DA
:010F7000225E
:020F71007A0004
:030F7300BA0400BD
:050F7600400302121906
:090F7B00E4FBFCEA60030210CD66
:0B0F84005380DFE55E30E40343802073
:0E0F8F00000000004390010000000000000080
:090F9D0000E58030E70343038006
:080FA600E59030E703430480ED
:0C0FAE005390FE5380DFE55E30E3034308
:020FBA00802095
:0E0FBC00000000004390010000000000000053
:090FCA0000E58030E70343034019
:080FD300E59030E70343044000
:0C0FDB005390FE5380DFE55E30E20343DC
:020FE700802068
:0E0FE900000000004390010000000000000026
:090FF70000E58030E7034303200C
:08100000E59030E703430420F2
:0C1008005390FE5380DFE55E30E10343AF
:0210140080203A
:0E1016000000000043900100000000000000F8
:0910240000E58030E703430310EE
:08102D00E59030E703430410D5
:0C1035005390FE5380DFE55E30E0034383
:0210410080200D
:0E1043000000000043900100000000000000CB
:0910510000E58030E703430308C9
:08105A00E59030E703430408B0
:0E1062005390FE5380DF000000004390010019
:0E10700000000000000000E58030E7034303AD
:01107E00046D
:08107F00E59030E7034304048F
:0E1087005390FE0000000043900100000000A6
:0C10950000000000E58030E70343030288
:0810A100E59030E7034304026F
:0E10A9005390FE000000004390010000000084
:0810B700E58030E7034303016B
:0810BF00E59030E70343040152
:0610C7005390FE0211D55A
:0A10CD00439001E58030E7027B80CC
:0810D700E59030E703430480BB
:0E10DF005390FE00000000439001000000004E
:0C10ED0000000000E58030E703430340F2
:0810F900E59030E703430440D9
:0E1101005390FE00000000439001000000002B
:0C110F0000000000E58030E703430320EF
:08111B00E59030E703430420D6
:0E1123005390FE000000004390010000000009
:0C11310000000000E58030E703430310DD
:08113D00E59030E703430410C4
:0E1145005390FE0000000043900100000000E7
:0C11530000000000E58030E703430308C3
:08115F00E59030E703430408AA
:0E1167005390FE0000000043900100000000C5
:0C11750000000000E58030E703430304A5
:08118100E59030E7034304048C
:0E1189005390FE0000000043900100000000A3
:0C11970000000000E58030E70343030285
:0811A300E59030E7034304026C
:0E11AB005390FE000000004390010000000081
:0C11B90000000000E58030E70343030164
:0811C500E59030E7034304014B
:0511CD00BA03028003DB
:0311D2005390FE39
:0511D500E558455945F5
:0611DA005A6018AD58AE8A
:0A11E00059AF5A8D828E838FF0EB19
:0711EA0012160B0558E4B5D5
:0411F1005802055942
:0511F500E55B455C45CF
:0611FA005D6018AB5BAD67
:0A1200005CAE5D8B828D838EF0ECF6
:07120A0012160B055BE4B5B1
:041211005B02055C1B
:041215000A020F7347
:06121900752700052515F4
:09121F0026E52660045390FE222E
:05122800C208C20543ED
:03122D0029202253
:0E12300090F003E0FA30E71DAA805302FC9014
:0A123E00F003E0FB30E60343020278
:0B12480090F003E0FB30E503430201DF
:021253008A808F
:011255002276
:06125600E5AA30E50122CB
:0D125C00759DF8759E00759AE0759B0090D9
:0B126900E67CE52AF0E59030E6055336
:0412740029BF80030B
:03127800432940C7
:07127B005329FD300F03436E
:0212820029023F
:0C12840090E67CE529F0E580F0E590F0B4
:09129000E525F0E52930E52FE524
:0812990025252525E0FAFBFCE8
:0712A100EC60047D018002F6
:0212A8007D00C7
:0E12AA00ED600C90E67BE0FD90E67CF01C8091
:0112B800E84D
:0A12B90074052AFA752500C20653D9
:0412C30029D78002A5
:0212C7007A05A6
:0C12C900300F347C017DE18D9A7C017DAA
:0A12D500E17D008C9B90E100E0FB3E
:0712DF00EB60047C018002BA
:0212E6007C008A
:0E12E800EC600C90E67BE0FC90E67CF01B8056
:0112F600E80F
:0912F700C20F90E100E0FB2AFAAD
:0E13000090E698E4F00000000090E699EAF014
:01130E0022BC
:02130F00D322E7
:02131100D322E5
:06131300C20875250075FB
:051319002600C205C220
:05131E0006755E0043AE
:0613230029805329CF22AE
:02132900D322CD
:08132B0090E6BAE0F523D3229D
:0C13330090E740E523F090E68AE4F0002B
:0B133F0000000090E68B7401F0D32248
:08134A0090E6BAE0F524D3227D
:0C13520090E740E524F090E68AE4F0000B
:0B135E0000000090E68B7401F0D32229
:02136900D3228D
:02136B00D3228B
:02136D00D32289
:02136F00D32287
:0C137100C0E0C082C083D2005391EF9016
:0C137D00E65D7401F0D083D082D0E03235
:0E138900C0E0C082C0835391EF90E65D740413
:08139700F0D083D082D0E032D7
:0E139F00C0E0C082C0835391EF90E65D7402FF
:0813AD00F0D083D082D0E032C1
:0C13B500C0E0C082C083C002C0038516E7
:0313C10018851775
:0413C40019AA18AB9F
:0A13C800198A828B83A37402F0855A
:0313D200141A8565
:0313D500151BAA3B
:0A13D8001AAB1B8A828B83A37407F3
:0E13E200F05391EF90E65D7410F0D003D0024E
:0713F000D083D082D0E0326F
:0C13F700C0E0C082C083D2035391EF908D
:0C140300E65D7408F0D083D082D0E032A7
:0E140F00C0E0C082C083C002C00390E680E04F
:08141D00FA30E724851418855C
:031425001519AAEC
:0A14280018AB198A828B83A37402AB
:05143200F085161A858B
:03143700171BAAD6
:0A143A001AAB1B8A828B83A3740790
:01144400F0B7
:0E1445005391EF90E65D7420F0D003D002D0FA
:0614530083D082D0E032DC
:0E14590090E678E05410C4540FFA74504AF52F
:06146700605401F55F2254
:0B146D00AA82C00212145912150912C5
:0B14780014DE1215F0D0025002D32247
:0C148300E55F600C90E679EAF01215F0CD
:04148F005002D32212
:0C14930090E679E561F01215F05002D3EC
:01149F00222A
:0614A000AA62AB637C00B0
:0C14A600C3EC956450268A828B83E0FD25
:0E14B200A3AA82AB8390E679EDF0C002C003DE
:0E14C000C0041215DFD004D003D0025002D3B6
:0114CE0022FB
:0314CF000C80D4BA
:0C14D20090E678E04440F01214EDC322D4
:0A14DE0090E6787480F0E560256068
:0514E80090E679F022FE
:0314ED00121509CC
:0E14F0001214DE1215DF90E678E04440F01290
:0B14FE00150990E678E0FA30E1E822E2
:0915090090E678E0FA20E6F822F1
:0B151200AA82C002121459121509121F
:0B151D0014DE1215F0D0025002D322A1
:0C152800E55F600C90E679EAF01215F027
:041534005002D3226C
:0C15380090E679E565F01215F05002D342
:011544002284
:0A15450090E6787480F0E560256000
:0E154F00FA90E67974014AF01215DF5002D3CB
:01155D00226B
:0B155E0090E679E01215DF5002D32266
:041569007A007B0089
:09156D00AC667D001CBCFF011DF1
:0E1576008B067F00C3EE9CEF64808DF063F067
:0B1584008095F05021EB2567FCE4355A
:0C158F0068FD90E679E08C828D83F0C04E
:0A159B00031215DFD0035002D32223
:0515A5000B8B0280C366
:0E15AA0090E6787420F0C0021215DFD00250D7
:0315B80002D32239
:0915BB00EA2567FAE43568FB90AB
:0E15C400E679E08A828B83F01215DF5002D3A5
:0115D20022F6
:0C15D30090E6787440F090E679E0C322C6
:0E15DF0090E678E0FAFB30E0F7EB30E202D362
:0115ED0022DB
:0215EE00C32216
:0E15F00090E678E0FAFB30E0F7EB30E202D351
:0115FE0022CA
:0615FF00EB20E102D32203
:02160500C322FE
:0E164A007400F58690FDA57C05A3E58245831E
:0316580070F92204
:0E165B0090E682E044C0F090E681F043870103
:0616690000000000002259
:06008D00E478FFF6D8FD47
:08006B007900E94400601B7AF2
:050073000090164A7820
:030078000075A070
:0A007B0000E493F2A308B8000205A8
:08008500A0D9F4DAF275A0FF26
:0416070075820022C6
:0E160B0020F71030F6118883A88220F507F62C
:05161900A883758300A9
:01161E0022A9
:03161F00F280F75F
:02162200F022B4
:080093007800E84400600A79DE
:03009B000075A04D
:06009E0000E4F309D8FCA8
:0800A4007800E84400600C79CB
:0B00AC0000900000E4F0A3D8FCD9FA9B
:03005E0075817F2A
:0A006100121607E582600302005941
:0E16240020F71430F6148883A88220F507E61C
:06163200A883758300226D
:03163800E280F756
:03163B00E4932213
:02163E00E022A8
:00000001FF
